:1000000020020020C9030000450200004902000050
:10001000FFFFFFFFFFFFFFFFFFFFFFFFFFFFFFFFF0
:10002000FFFFFFFFFFFFFFFFFFFFFFFF5902000081
:10003000FFFFFFFFFFFFFFFF5B0200005D0200000C
:100040006D0400006D0400006D0400006D040000EC
:100050006D0400006D0400006D040000FFFFFFFF51
:100060006D0400006D0400006D040000FFFFFFFF41
:100070006D0400006D0400006D0400006D040000BC
:100080006D0400006D0400006D0400006D040000AC
:100090006D0400006D0400006D0400006D0400009C
:1000A0006D0400006D0400006D0400006D0400008C
:1000B0006D040000FFFFFFFF6D0400006D040000F1
:1000C0000448054B10B5834203D0044B002B00D0ED
:1000D000984710BD00000020000000200000000034
:1000E00006480749091A8B10C90FC91810B54910DD
:1000F00003D0044B002B00D0984710BD0000002017
:10010000000000200000000010B5074C2378002BF1
:1001100009D1FFF7D5FF054B002B02D0044800E0C2
:1001200000BF0123237010BD00000020000000006C
:10013000E8050000054B10B5002B03D00449054825
:1001400000E000BFFFF7CCFF10BDC046000000007C
:1001500004000020E805000070B50C4D0C4E761B25
:10016000B61005D0002408CD01349847A642FAD134
:1001700000F03AFA074D084E761BB61005D0002461
:1001800008CD01349847A642FAD170BD00060000A0
:10019000000600000006000004060000F0B505009F
:1001A000830749D0541E002A45D003000326CAB253
:1001B00002E00135013C3ED301332A703342F8D1CD
:1001C000032C30D9FF220A40150215432A04154397
:1001D0000F2C34D92700103F3F093E01B4461E00C2
:1001E0001A0010366644156055609560D56010326F
:1001F000B242F8D101373F01DB190F270C2227400B
:1002000022403C00002A0ED03E1FB608B400A4468F
:100210001A001C1D644420C2A242FCD103240136F2
:10022000B6009B193C40002C05D0C9B21C191970AE
:1002300001339C42FBD1F0BD03001400C0E727004E
:10024000E2E7C04670470000024A1368002BFCD06A
:100250007047C0461C000020704770477047000080
:10026000F0B50C4C85B00700160001900291080013
:100270000392616AE56A226B002B07D1B94385437B
:10028000B2436162E562226305B0F0BD39430543C4
:100290003243F6E7008008400368002A02D0194381
:1002A000016070478B430360FBE710B58468C36847
:1002B0008C438B43002A04D0012A04D08460C3609D
:1002C00010BD0C43FAE70B43F8E7416270478162C7
:1002D0007047002A01D0416270478162FCE700004C
:1002E000134BF7B5C000C01800230192FF229A40BB
:1002F000114218D0012700229F40150014000097DA
:100300000E00E640009F374206D00F27A600B740F8
:100310003D43019FB7403A430134082CF0D10468B3
:10032000AC432243026008330430102BDED1F7BD0A
:10033000202002401FB50C22002101A8FFF72EFF4C
:100340006A46402353723E3B93710198013B0299E8
:10035000039AFFF785FF01220A4C10001021FFF7D6
:10036000BFFF200001221021FFF79FFF2000002285
:100370001021FFF7AEFF012210212000FFF78CFFB4
:100380001FBDC04600200B40102110B50948FFF7E3
:100390009CFF094B013B002B08D110210548FFF7BA
:1003A00096FF054B013B002B02D110BDC046F1E783
:1003B000C046F7E700200B4041420F0010B5FFF7A1
:1003C000B9FFFFF7E1FFFCE7294885462948804748
:1003D00029488047002103E0284B5B5843500431F3
:1003E0002748284B42189A42F6D3274A02E00023B6
:1003F00013600432254B9A42F9D3FFF7ADFEFFF7A5
:10040000DDFFFEE722480169002908D14169002982
:1004100005D18169002902D1C169002909D01D488F
:10042000C1680901090D00290ED005290CD0062943
:100430000AD0BFF34F8F1848184901601849174870
:10044000C860BFF34F8FFEE7134801681348884226
:1004500000D070471348144901600F4813490160E8
:100460007047FEE7FEE7FEE7FEE7FEE7FEE7000077
:100470002002002005040000B1040000080600006E
:1004800000000020000000200000002020000020CC
:100490000003084080010840000000200400FA0525
:1004A00000ED00E0008108400100000000000000B5
:1004B0001022424BF0B5DA60C0220121404B92007D
:1004C000995040223F4801680A4302603E4A9168C1
:1004D0002729FCD1DA31FF3154680C426AD08021DF
:1004E00000268900546825000D400C4264D1C022CA
:1004F00092009D505A6A3549354D0A4080215A6212
:10050000344A090114682143116008212C680C4207
:10051000FCD0072603215C68B44321435960596B22
:1005200031400329FBD180272B49BF00CC59B4436C
:10053000260001243443CC5100241C621468274E49
:100540003440146080241E68640034431C6080249E
:100550001668E4003443146004242E682642FCD05C
:1005600040260468B443046018681D4C204018609D
:10057000A0208024800498611068A40020431060AB
:10058000022228681042FCD007200D5985432A43D7
:100590000A5100221A625968013281430A435A60A3
:1005A0005A6B0240012AFBD110230E4A11680B43FB
:1005B0001360F0BD51608FE7566093E700810840FB
:1005C000008008403080084000A10640FFF3FFFF94
:1005D000088008400480084000000840FFFDFFFF3D
:1005E000FFFEFFFF00020840F8B5C046F8BC08BC9B
:1005F0009E467047F8B5C046F8BC08BC9E4670479A
:0406000035010000C0
:0406040009010000E8
:04000003000003C92D
:00000001FF
